:020000040000FA
:020000000828CE
:040002000034003492
:080008000B1881290B194E2988
:100010008501860183168501F030860087308100D6
:100020009830A7000030A6003430A5000C30A100A5
:1000300083128B178B152A21023085002F21023065
:1000400085002F21083085002F21003085002F21C9
:100050000F3085002F21003085002F2101308500D1
:100060002F21003085002F21063085002F213A20D6
:100070005A2039283921A2018B120C30A1002030DE
:1000800019212030192120301921573019214530EC
:1000900019214C301921433019214F3019214D308D
:1000A0001921453019210821B2210B309F00013060
:1000B0009E00080039212A3019214D301921413084
:1000C00019215030192140309D0040212030192144
:1000D000503019214C301921413019215930192142
:1000E0004A212210A2100800392150301921523023
:1000F000192145301921533019215330192120304D
:1001000019214C3019212030192152301921221483
:10011000A210080039212A30192145301921413017
:1001200019215330192159301921203019214D300E
:100130001921453019214430192120301921483026
:1001400019214130192152301921443019214A21F5
:100150000800392157301921493019214E30192111
:10016000080039214C3019214F3019215330192101
:100170005330192108003921CF2040309D00402103
:10018000CF200F309D004021221A4530A2194D305A
:100190002219483019212219E0204A210800DB30B9
:1001A0001921DB301921DB301921DB301921DB303B
:1001B0001921DB301921DB301921DB30192108002E
:1001C0004A309D0040218B165230192145301921AB
:1001D0004D30192131301921323019213030192197
:1001E000080039210C3084000930A000FE20403086
:1001F0009D0040210930A000FE200800A00B01292D
:100200000729801B801300081921840AFE28080092
:100210000530A80006152A21061186152A212A2153
:100220008611A80B0A29080006142A212A21061083
:100230000800A400240E0F39103885002F2124084F
:100240000F39103885002F210800F930A900A90BBB
:1002500027290800A60F2A29A50B2A290800861499
:100260000000861025212521252125212521252154
:100270000800003085002F21013085002F21080063
:100280001D0E0739083885002F211D080F398500FC
:100290002F21080000309D0040210800A70B5D2998
:1002A0009830A700A10B60290C30A100221D5D2908
:1002B000A21C5D29221C5D298D210B1181010900E1
:1002C000221D8029A21C8029221C80291D08A00033
:1002D000A0004D309D004021A11D782921197829C9
:1002E000A11C78293130192121083A3A19217D2998
:1002F0002030192121083038192120089D00402183
:100300005D2925212521861F5222061F2A22861EAD
:10031000A422061EFF210B1009008615B1202A21F8
:100320002A212A212A212A212A21F1202A212A21AF
:100330002A212A212A212A213A205A20080006159A
:10034000A9202A212A212A212A212A212A21F12011
:100350002A212A212A212A212A212A213A2006116A
:100360005A2008000C3084003030FC213130FC2150
:100370002A30FC213230FC213230FC212A30FC2191
:100380003330FC212A30FC213030FC213130FC217B
:100390003130FC213230FC212A30FC213230FC216A
:1003A0003330FC212A30FC210C30840008000C3052
:1003B00084003230FC212A30FC213330FC212A30E9
:1003C000FC213330FC212A30FC213230FC2130303A
:1003D000FC213230FC212A30FC213330FC21313029
:1003E000FC213330FC212A30FC213230FC2130301A
:1003F000FC210C30840008008000840A0800A21848
:10040000022A052A2218C82A132A22180800092AB3
:1004100008001D1F0E221D1B11220800221474202B
:100420000800A2148A281D08003A031926221D0874
:10043000053A0319A2151D08093A031922152A21A4
:10044000A21422149D014A21BB2808002216023062
:100450009E000800A2182D2A302A22183A2A0800E5
:100460002218342A08000800A21206158611B221AB
:100470005A20080001309D0284021D08A000FF3AA6
:100480000319482220083F3A03194D224021080051
:1004900000309D000C308400080007309D001330B0
:1004A00084000800A218552A582A22188C2A622A89
:1004B00022185C2A08000800A21286150611D7210E
:1004C0005A2008001D08A000003A031971222008D4
:1004D000053A031979222008093A0319822240219A
:1004E00008002030192105309D0040212A301921B3
:1004F000080020301921402109309D0040212A3078
:100500001921080020301921402100309D00402190
:100510002A3019214021080001309D0784071D0859
:10052000A000083A03199A222008483A03199F228A
:100530004021080040309D00143084000800003045
:100540009D000C3084000800A218A72AAA2A2218AD
:10055000BA2A080022180800AE2A08002030192103
:100560001D1F40301D1B00309D0040212A301921E5
:100570004021080040301D1FC32ABE2A9D020830BA
:100580008402402108009D070830840740210800AC
:10059000801BD82A001ECD2AD12A14219E0BD42AD2
:1005A0008D299F0BD42A9F290008192140218017EB
:0205B000080041
:02400E00F13F80
:00000001FF
